:04000000DFEF05F039
:1000080000C018F001C017F00CC016F00DC015F0B4
:10001800F2A21ED04E0E0C6EEB0E0D6E0D2EFED7FC
:100028000C2EFCD781B013D01C50000A10E14350AD
:10003800010A07E1020E436E0A0E306E000E316EA1
:1000480006D0010E436E3C0E306E000E316EF292F9
:10005800F0A010D04E0E0C6EEB0E0D6E0D2EFED7CE
:100068000C2EFCD781B205D01C50000A02E196EC98
:1000780004F0F090F2A425D0E10ED76E7C0ED66E77
:100088001C50010A1DE14350010A1AE1000E006EDE
:100098003150005C02E13050000812E2010E305C81
:1000A800006E000E3158016E00C030F001C031F012
:1000B800000E311802E1000E301802E1D59E1C6ACC
:1000C800F2949EA038D00B0ECF6EDC0ECE6E1C5074
:1000D800010A30E14350020A2DE1000E006E315052
:1000E800005C02E13050000825E20001010E79258C
:1000F800006E000E7A21016E00C079F001C07AF01E
:10010800000E7A5D02E1040E795D14E3796B7A6B77
:10011800010E305C006E000E3158016E00C030F0E8
:1001280001C031F0000E311802E1000E301802E172
:10013800CD901C6A9E9018C000F017C001F016C040
:080148000CF015C00DF01100D0
:0A015000210E0D6E0D2EFED71200D9
:10015A000F0E0C6E470E0D6E0D2EFED70C2EFCD711
:06016A000000000012007D
:0601700000000000120077
:10017600000191BF02D0839E01D0838E91BD02D033
:10018600839C01D0838C91BB02D0839A01D0838A51
:1001960091B902D0839801D083887BB102D081883F
:1001A60001D08198818AE1DF819A91B702D0839E3E
:1001B60001D0838E91B502D0839C01D0838C91B3FC
:1001C60002D0839A01D0838A91B102D0839801D05C
:1001D60083887BB102D0818801D08198818AC5DF6E
:0E01E600819A7BA102D0B6DF01D0AFDF1200FC
:0E01F40000017B9190C091F0BCDF7B81120076
:10020200086A096A100E0C6E013408360936045069
:10021200085E0550D8A0053C095ED8B007D004504E
:1002220008260550D8B0053C0926D890003601367C
:060232000C2EEAD71200B9
:10023800939A93989598959A959C959E819A81986A
:10024800839E839C839A839884DF83DF82DF838AFB
:100258008388818A89DF819A7CDF818A85DF819A18
:1002680078DF818A81DF819A74DF8398818A7CDFD5
:10027800819A6FDF818A78DF819A839A838E818A57
:1002880073DF819A66DF839E8388818A6DDF819A16
:100298008398818A69DF819A5CDF818A65DF819A28
:1002A8008388818A61DF819A54DF8398818A5CDF41
:1002B800819A838E838C838A8388818A55DF819A89
:0802C80048DF00017B811200F8
:1002D00000018751030802E18651E70804E2E70EB6
:1002E000866F030E876F640E046E000E056E86C067
:1002F00000F087C001F085DF300E002688C0E1FFE6
:1003000089C0E2FF00C0E6FF010E88258A6F000E5B
:1003100089218B6F0A0E046E000E056E86C000F0F8
:1003200087C001F06EDF0A0E046E000E056E69DFF5
:1003300008C000F009C001F0300E00268AC0E1FFBD
:100340008BC0E2FF00C0E6FF020E88258A6F000E18
:1003500089218B6F0A0E046E000E056E86C000F0B8
:1003600087C001F04EDF08C000F009C001F0300E78
:1003700000268AC0E1FF8BC0E2FF00C0E6FF030E4B
:0E0380008825E16E000E8921E26EE66A120009
:10038E000A0E046E000E056E86C000F087C001F0E6
:10039E0031DF00C08EF001C08FF08EC08AF08FC0AA
:1003AE008BF00A0E046E000E056E86C000F087C03C
:1003BE0001F020DF08C000F009C001F000C08CF091
:1003CE0001C08DF0000E00018F5D02E1640E8E5DA6
:1003DE002EE388C0E1FF89C0E2FF310EE66E010E0A
:1003EE008825E16E000E8921E26E300EE66E020E59
:1003FE008825E16E000E8921E26E300EE66E030E48
:10040E008825E16E000E8921E26E2E0EE66E040E38
:10041E008825E16E000E8921E26E300EE66E050E25
:10042E008825E16E000E8921E26EE66A46D00A0E3C
:10043E00046E000E056E8AC000F08BC001F0DADE8D
:10044E00300E002688C0E1FF89C0E2FF00C0E6FF43
:10045E00010E88258E6F000E89218F6F0A0E046E95
:10046E00000E056E8AC000F08BC001F0C3DE08C01E
:10047E0000F009C001F0300E00268EC0E1FF8FC0E3
:10048E00E2FF00C0E6FF020E8825E16E000E892114
:10049E00E26E2E0EE66E030E8825E16E000E8921A9
:1004AE00E26E300E8C25006E00C0E6FF040E88252D
:0C04BE00E16E000E8921E26EE66A120079
:1004CA00220E0C6E086A096A0A6A0B6A0C06D8B40C
:1004DA001FD0D8900B320A32093208320332023264
:1004EA0001320032D8A0F2D70C06D8B409D0045091
:1004FA0008260550092206500A2207500B22EAD77D
:10050A00045008260550092206500A2207500B22D9
:02051A001200CD
:10051C000B6A0A6A096A086A0E6A033408360450C0
:10052C00085E0550D8A0053C095E0650D8A0063CD4
:10053C000A5E0750D8A0073C0B5EE86AD8A0010EF3
:10054C000E5E0336070E0C6E0334083609360A3677
:10055C000B360E36045003A012D0085E0550D8A0FE
:10056C00053C095E0650D8A0063C0A5E0750D8A090
:10057C00073C0B5EE86AD8A0010E0E5E11D008266F
:10058C000550D8B0053C09260650D8B0063C0A26C2
:10059C000750D8B0073C0B26E86AD8B0010E0E26DF
:1005AC0003360C2ED1D70234083609360A360B36F0
:1005BC000E36045003A012D0085E0550D8A0053C9E
:1005CC00095E0650D8A0063C0A5E0750D8A0073C2E
:1005DC000B5EE86AD8A0010E0E5E11D008260550FD
:1005EC00D8B0053C09260650D8B0063C0A26075060
:1005FC00D8B0073C0B26E86AD8B0010E0E2602369E
:10060C00070E0C6E0234083609360A360B360E36D7
:10061C00045002A012D0085E0550D8A0053C095E1B
:10062C000650D8A0063C0A5E0750D8A0073C0B5ECB
:10063C00E86AD8A0010E0E5E11D008260550D8B07D
:10064C00053C09260650D8B0063C0A260750D8B0FF
:10065C00073C0B26E86AD8B0010E0E2602360C2E8B
:10066C00D1D70134083609360A360B360E3604500B
:10067C0002A012D0085E0550D8A0053C095E0650B9
:10068C00D8A0063C0A5E0750D8A0073C0B5EE86A6F
:10069C00D8A0010E0E5E11D008260550D8B0053C2E
:1006AC0009260650D8B0063C0A260750D8B0073C9D
:1006BC000B26E86AD8B0010E0E260136070E0C6E1A
:1006CC000134083609360A360B360E36045001A0B2
:1006DC0012D0085E0550D8A0053C095E0650D8A083
:1006EC00063C0A5E0750D8A0073C0B5EE86AD8A00F
:1006FC00010E0E5E11D008260550D8B0053C092617
:10070C000650D8B0063C0A260750D8B0073C0B263A
:10071C00E86AD8B0010E0E2601360C2ED1D7003463
:10072C00083609360A360B360E36045001A012D0A4
:10073C00085E0550D8A0053C095E0650D8A0063CC2
:10074C000A5E0750D8A0073C0B5EE86AD8A0010EE1
:10075C000E5E11D008260550D8B0053C092606506F
:10076C00D8B0063C0A260750D8B0073C0B26E86ADE
:10077C00D8B0010E0E260036070E0C6E003408366B
:10078C0009360A360B360E36045000A012D0085E1D
:10079C000550D8A0053C095E0650D8A0063C0A5E60
:1007AC000750D8A0073C0B5EE86AD8A0010E0E5E7D
:1007BC0011D008260550D8B0053C09260650D8B0F3
:1007CC00063C0A260750D8B0073C0B26E86AD8B07E
:1007DC00010E0E2600360C2ED1D700B00ED00450D0
:1007EC0008260550D8B0053C09260650D8B0063C62
:0C07FC000A260750D8B0073C0B2612005C
:1008080010D0800E0001866F1AD0C00E866F17D0E8
:10081800940E866F14D0D40E866F11D0800E866F1A
:100828000ED000018651010AECE08651020AEDE083
:100838008651030AEDE08651040AEDE0EFD78705FB
:10084800006E8651002600C086F000C091F08FDC53
:100858007B918A6B8A518825E96E000E8921EA6EA0
:10086800EE520BE08A518825E96E000E8921EA6E66
:0E087800EECF90F0BBDC8A2BEDD77B81120017
:1008860010D0800E0001866F1AD0C00E866F17D06A
:10089600940E866F14D0D40E866F11D0800E866F9C
:1008A6000ED000018651010AECE08651020AEDE005
:1008B6008651030AEDE08651040AEDE0EFD787057D
:1008C600006E8651002600C086F07B8100C091F044
:0E08D6004FDC7B9188C091F04BDC7B811200DF
:1008E4000E0EC16EFF0E926E956A9380938293985A
:1008F400939A8198819A8398839A839C839E9490F7
:060904008290F19E12003A
:10090A000E0EC16EA20EC06E010EC26E340E0C6EB9
:10091A00F10E0D6E0D2EFED70C2EFCD70000000036
:02092A001200B9
:10092C00010E1C6E0001796B7A6B4350010A0CE1CD
:10093C003C0E306E000E316ECD90E10ED76E7C0EFB
:10094C00D66EF294D58E0BD00A0E306E000E316E30
:10095C00D59E0B0ECF6EDC0ECE6E9E90CD8012000F
:10096C000900F5CFE6FF0006FBE10106F9E11200F4
:10097C00020E0B6E040E0C6EBA0E0D6E0D2EFED703
:10098C000C2EFCD70B2EFAD7000050DC340E0C6E5C
:10099C00F10E0D6E0D2EFED70C2EFCD700000000B4
:1009AC00010E916FBBEC00F00D0E0C6EFB0E0D6E7C
:1009BC000D2EFED70C2EFCD7000000000C0E916FF4
:1009CC00BBEC00F00D0E0C6EFB0E0D6E0D2EFED75B
:1009DC000C2EFCD700000000010E866F010E876FF5
:1009EC00540E886F000E896F09DF020E866F010EA0
:0E09FC00876F440E886F000E896F00DF1200B7
:100A0A00D09EF19CF19AF292F090F288F086F294DC
:080A1A009E90F28CF28E120096
:100A2200010EC26E0D0E0C6EFB0E0D6E0D2EFED75C
:100A32000C2EFCD700000000C282C2A201D0FDD75A
:100A4200030EC414006E00C003F0000E046E03C057
:100A520001F0006AC3500012000E0112000E026E75
:100A6200036EE80E046E030E056E000E066E000E97
:100A7200076E2ADDCC0E046E000E056E000E066EA9
:100A8200000E076E4ADD00C02EF001C02FF00150AB
:100A9200030802E10050E80804E2E80E2E6E030E9D
:100AA2002F6E2F50010802E12E50F40802E28280DC
:060AB20001D08290120049
:100AB800070ED56EE10ED76E7C0ED66EF28AD59EE5
:100AC800300ECD6E0B0ECF6EDC0ECE6E9D80CD90AF
:020AD80012000A
:100ADA002EC086F02FC087F07C0E0001886F000EB2
:100AEA00896F50DC30C086F031C087F0820E886F83
:100AFA00000E896F68EC01F0010E866F010E876F98
:100B0A00320E886F000E896F7ADE010E866F070E2D
:100B1A00876F7C0E886F000E896F71DE010E866FFB
:100B2A000C0E876F190E886F000E896F68DE000E33
:100B3A00311802E1000E30180DE11C50000A0AE1DA
:100B4A00020E866F010E876F1D0E886F000E896F69
:100B5A0056DE2FD04350010A0AE1020E866F010EBB
:100B6A00876F610E886F000E896F49DE09D0020E09
:100B7A00866F010E876F6B0E886F000E896F3FDEDE
:100B8A00020E866F0A0E876F750E886F000E896FC8
:100B9A0036DE020E866F0D0E876F820E886F000E8C
:100BAA00896F2DDE020E866F100E876F730E886FA7
:040BBA0065DE1200E2
:100BBE0027EC06F090DEA2DEDADE77DF1FDF2ADF1B
:100BCE0085DF030E0B6E080E0C6E770E0D6E0D2E5E
:0E0BDE00FED70C2EFCD70B2EFAD7F1D7FFD77F
:100C4E0010EE19F0620E006E010E016EEC0EF66ED5
:0E0C5E000B0EF76E000EF86EB6EC04F01200EE
:030BEC00204300A3
:010BEF000005
:100BF00046696D2020202020543A30303073202068
:010C000000F3
:020C01000000F1
:020C03003C00B3
:100C050054656D703A2020202020202020202020AF
:010C150000DE
:010C160001DC
:100C170053656C3A4C6F6E6720543A303630730028
:0D0C270054656D703A2030302E30204300AF
:0A0C340053656C3A4C6F6E672000A8
:0A0C3E0053656C3A437572746F0041
:040C480020543A00FA
:020C4C000000A6
:020000040030CA
:0E000000000C1F1EFF8381FF0FC00FE00F409A
:00000001FF
